{
  "contractName": "MealMenu",
  "abi": [
    {
      "constant": true,
      "inputs": [
        {
          "name": "",
          "type": "uint256"
        }
      ],
      "name": "availableMeals",
      "outputs": [
        {
          "name": "Title",
          "type": "string"
        },
        {
          "name": "Description",
          "type": "string"
        },
        {
          "name": "Where",
          "type": "string"
        },
        {
          "name": "When",
          "type": "uint256"
        },
        {
          "name": "Price",
          "type": "uint256"
        },
        {
          "name": "Capacity",
          "type": "uint8"
        },
        {
          "name": "Cook",
          "type": "address"
        }
      ],
      "payable": false,
      "stateMutability": "view",
      "type": "function"
    },
    {
      "constant": true,
      "inputs": [
        {
          "name": "id",
          "type": "uint256"
        }
      ],
      "name": "getMeal",
      "outputs": [
        {
          "name": "Cook",
          "type": "address"
        },
        {
          "name": "Title",
          "type": "string"
        },
        {
          "name": "Description",
          "type": "string"
        },
        {
          "name": "Where",
          "type": "string"
        },
        {
          "name": "When",
          "type": "uint256"
        },
        {
          "name": "Price",
          "type": "uint256"
        },
        {
          "name": "Capacity",
          "type": "uint8"
        },
        {
          "name": "Eaters",
          "type": "address[]"
        }
      ],
      "payable": false,
      "stateMutability": "view",
      "type": "function"
    },
    {
      "constant": true,
      "inputs": [],
      "name": "getNumberOfMeals",
      "outputs": [
        {
          "name": "",
          "type": "uint256"
        }
      ],
      "payable": false,
      "stateMutability": "view",
      "type": "function"
    },
    {
      "constant": false,
      "inputs": [
        {
          "name": "t",
          "type": "string"
        },
        {
          "name": "d",
          "type": "string"
        },
        {
          "name": "wr",
          "type": "string"
        },
        {
          "name": "wn",
          "type": "uint256"
        },
        {
          "name": "p",
          "type": "uint256"
        },
        {
          "name": "c",
          "type": "uint8"
        }
      ],
      "name": "createMeal",
      "outputs": [],
      "payable": false,
      "stateMutability": "nonpayable",
      "type": "function"
    },
    {
      "constant": false,
      "inputs": [
        {
          "name": "id",
          "type": "uint256"
        },
        {
          "name": "t",
          "type": "string"
        },
        {
          "name": "d",
          "type": "string"
        },
        {
          "name": "wr",
          "type": "string"
        },
        {
          "name": "c",
          "type": "uint8"
        }
      ],
      "name": "updateMeal",
      "outputs": [],
      "payable": false,
      "stateMutability": "nonpayable",
      "type": "function"
    },
    {
      "constant": false,
      "inputs": [
        {
          "name": "id",
          "type": "uint256"
        }
      ],
      "name": "reserve",
      "outputs": [],
      "payable": true,
      "stateMutability": "payable",
      "type": "function"
    },
    {
      "constant": false,
      "inputs": [],
      "name": "withdraw",
      "outputs": [],
      "payable": false,
      "stateMutability": "nonpayable",
      "type": "function"
    }
  ],
  "bytecode": "0x608060405234801561001057600080fd5b506118b7806100206000396000f300608060405260043610610083576000357c0100000000000000000000000000000000000000000000000000000000900463ffffffff1680633ccfd60b1461008857806344c9370c1461009f5780634aa2335c146100ca5780636d377a76146101e0578063819b25ba146102ec5780638f1eeb411461030c578063c2f0add7146104d8575b600080fd5b34801561009457600080fd5b5061009d6106ec565b005b3480156100ab57600080fd5b506100b46107bd565b6040518082815260200191505060405180910390f35b3480156100d657600080fd5b506101de600480360381019080803590602001908201803590602001908080601f0160208091040260200160405190810160405280939291908181526020018383808284378201915050505050509192919290803590602001908201803590602001908080601f0160208091040260200160405190810160405280939291908181526020018383808284378201915050505050509192919290803590602001908201803590602001908080601f01602080910402602001604051908101604052809392919081815260200183838082843782019150505050505091929192908035906020019092919080359060200190929190803560ff1690602001909291905050506107ca565b005b3480156101ec57600080fd5b506102ea60048036038101908080359060200190929190803590602001908201803590602001908080601f0160208091040260200160405190810160405280939291908181526020018383808284378201915050505050509192919290803590602001908201803590602001908080601f0160208091040260200160405190810160405280939291908181526020018383808284378201915050505050509192919290803590602001908201803590602001908080601f0160208091040260200160405190810160405280939291908181526020018383808284378201915050505050509192919290803560ff169060200190929190505050610ab3565b005b61030a60048036038101908080359060200190929190505050610d87565b005b34801561031857600080fd5b506103376004803603810190808035906020019092919050505061104a565b604051808060200180602001806020018881526020018781526020018660ff1660ff1681526020018573ffffffffffffffffffffffffffffffffffffffff1673ffffffffffffffffffffffffffffffffffffffff16815260200184810384528b818151815260200191508051906020019080838360005b838110156103c95780820151818401526020810190506103ae565b50505050905090810190601f1680156103f65780820380516001836020036101000a031916815260200191505b5084810383528a818151815260200191508051906020019080838360005b8381101561042f578082015181840152602081019050610414565b50505050905090810190601f16801561045c5780820380516001836020036101000a031916815260200191505b50848103825289818151815260200191508051906020019080838360005b8381101561049557808201518184015260208101905061047a565b50505050905090810190601f1680156104c25780820380516001836020036101000a031916815260200191505b509a505050505050505050505060405180910390f35b3480156104e457600080fd5b5061050360048036038101908080359060200190929190505050611290565b604051808973ffffffffffffffffffffffffffffffffffffffff1673ffffffffffffffffffffffffffffffffffffffff1681526020018060200180602001806020018881526020018781526020018660ff1660ff1681526020018060200185810385528c818151815260200191508051906020019080838360005b8381101561059957808201518184015260208101905061057e565b50505050905090810190601f1680156105c65780820380516001836020036101000a031916815260200191505b5085810384528b818151815260200191508051906020019080838360005b838110156105ff5780820151818401526020810190506105e4565b50505050905090810190601f16801561062c5780820380516001836020036101000a031916815260200191505b5085810383528a818151815260200191508051906020019080838360005b8381101561066557808201518184015260208101905061064a565b50505050905090810190601f1680156106925780820380516001836020036101000a031916815260200191505b50858103825286818151815260200191508051906020019060200280838360005b838110156106ce5780820151818401526020810190506106b3565b505050509050019c5050505050505050505050505060405180910390f35b60008060003373ffffffffffffffffffffffffffffffffffffffff1673ffffffffffffffffffffffffffffffffffffffff16815260200190815260200160002054905060008060003373ffffffffffffffffffffffffffffffffffffffff1673ffffffffffffffffffffffffffffffffffffffff168152602001908152602001600020819055503373ffffffffffffffffffffffffffffffffffffffff166108fc829081150290604051600060405180830381858888f193505050501580156107b9573d6000803e3d6000fd5b5050565b6000600180549050905090565b6107d261163a565b428411151561086f576040517f08c379a00000000000000000000000000000000000000000000000000000000081526004018080602001828103825260278152602001807f4e6f7420616c6c6f77656420746f20637265617465206d65616c7320696e207481526020017f686520706173740000000000000000000000000000000000000000000000000081525060400191505060405180910390fd5b60008260ff16111515610910576040517f08c379a00000000000000000000000000000000000000000000000000000000081526004018080602001828103825260238152602001807f5a65726f2d6361706163697479206d65616c7320617265206e6f7420616c6c6f81526020017f776564000000000000000000000000000000000000000000000000000000000081525060400191505060405180910390fd5b338160e0019073ffffffffffffffffffffffffffffffffffffffff16908173ffffffffffffffffffffffffffffffffffffffff16815250508681600001819052508581602001819052508481604001819052508381606001818152505082816080018181525050818160a0019060ff16908160ff16815250506001819080600181540180825580915050906001820390600052602060002090600802016000909192909190915060008201518160000190805190602001906109d3929190611699565b5060208201518160010190805190602001906109f0929190611699565b506040820151816002019080519060200190610a0d929190611699565b50606082015181600301556080820151816004015560a08201518160050160006101000a81548160ff021916908360ff16021790555060c0820151816006019080519060200190610a5f929190611719565b5060e08201518160070160006101000a81548173ffffffffffffffffffffffffffffffffffffffff021916908373ffffffffffffffffffffffffffffffffffffffff16021790555050505050505050505050565b600185815481101515610ac257fe5b906000526020600020906008020160070160009054906101000a900473ffffffffffffffffffffffffffffffffffffffff1673ffffffffffffffffffffffffffffffffffffffff163373ffffffffffffffffffffffffffffffffffffffff16141515610bbc576040517f08c379a00000000000000000000000000000000000000000000000000000000081526004018080602001828103825260308152602001807f4f6e6c7920612074686520436f6f6b206f662074686973206d65616c2063616e81526020017f2075706461746520746865206d65616c0000000000000000000000000000000081525060400191505060405180910390fd5b8060ff16600186815481101515610bcf57fe5b90600052602060002090600802016006018054905060ff16101515610ca8576040517f08c379a00000000000000000000000000000000000000000000000000000000081526004018080602001828103825260468152602001807f596f752063616e6e6f74206c6f7765722074686520636170616369747920626581526020017f6c6f7720746865206e756d626572206f662063757272656e742072657365727681526020017f6174696f6e73000000000000000000000000000000000000000000000000000081525060600191505060405180910390fd5b83600186815481101515610cb857fe5b90600052602060002090600802016000019080519060200190610cdc9291906117a3565b5082600186815481101515610ced57fe5b90600052602060002090600802016001019080519060200190610d119291906117a3565b5081600186815481101515610d2257fe5b90600052602060002090600802016002019080519060200190610d469291906117a3565b5080600186815481101515610d5757fe5b906000526020600020906008020160050160006101000a81548160ff021916908360ff1602179055505050505050565b42600182815481101515610d9757fe5b906000526020600020906008020160030154111515610e44576040517f08c379a00000000000000000000000000000000000000000000000000000000081526004018080602001828103825260218152602001807f43616e6e6f7420726573657276652061206d65616c20696e207468652070617381526020017f740000000000000000000000000000000000000000000000000000000000000081525060400191505060405180910390fd5b600181815481101515610e5357fe5b906000526020600020906008020160050160009054906101000a900460ff1660ff16600182815481101515610e8457fe5b90600052602060002090600802016006018054905060ff16101515610f37576040517f08c379a000000000000000000000000000000000000000000000000000000000815260040180806020018281038252602a8152602001807f546865206361706163697479206f662074686973206d65616c2068617320626581526020017f656e20726561636865640000000000000000000000000000000000000000000081525060400191505060405180910390fd5b34600080600184815481101515610f4a57fe5b906000526020600020906008020160070160009054906101000a900473ffffffffffffffffffffffffffffffffffffffff1673ffffffffffffffffffffffffffffffffffffffff1673ffffffffffffffffffffffffffffffffffffffff16815260200190815260200160002060008282540192505081905550600181815481101515610fd257fe5b90600052602060002090600802016006013390806001815401808255809150509060018203906000526020600020016000909192909190916101000a81548173ffffffffffffffffffffffffffffffffffffffff021916908373ffffffffffffffffffffffffffffffffffffffff1602179055505050565b60018181548110151561105957fe5b9060005260206000209060080201600091509050806000018054600181600116156101000203166002900480601f0160208091040260200160405190810160405280929190818152602001828054600181600116156101000203166002900480156111055780601f106110da57610100808354040283529160200191611105565b820191906000526020600020905b8154815290600101906020018083116110e857829003601f168201915b505050505090806001018054600181600116156101000203166002900480601f0160208091040260200160405190810160405280929190818152602001828054600181600116156101000203166002900480156111a35780601f10611178576101008083540402835291602001916111a3565b820191906000526020600020905b81548152906001019060200180831161118657829003601f168201915b505050505090806002018054600181600116156101000203166002900480601f0160208091040260200160405190810160405280929190818152602001828054600181600116156101000203166002900480156112415780601f1061121657610100808354040283529160200191611241565b820191906000526020600020905b81548152906001019060200180831161122457829003601f168201915b5050505050908060030154908060040154908060050160009054906101000a900460ff16908060070160009054906101000a900473ffffffffffffffffffffffffffffffffffffffff16905087565b60006060806060600080600060606001898154811015156112ad57fe5b906000526020600020906008020160070160009054906101000a900473ffffffffffffffffffffffffffffffffffffffff1697506001898154811015156112f057fe5b90600052602060002090600802016000018054600181600116156101000203166002900480601f0160208091040260200160405190810160405280929190818152602001828054600181600116156101000203166002900480156113955780601f1061136a57610100808354040283529160200191611395565b820191906000526020600020905b81548152906001019060200180831161137857829003601f168201915b505050505096506001898154811015156113ab57fe5b90600052602060002090600802016001018054600181600116156101000203166002900480601f0160208091040260200160405190810160405280929190818152602001828054600181600116156101000203166002900480156114505780601f1061142557610100808354040283529160200191611450565b820191906000526020600020905b81548152906001019060200180831161143357829003601f168201915b5050505050955060018981548110151561146657fe5b90600052602060002090600802016002018054600181600116156101000203166002900480601f01602080910402602001604051908101604052809291908181526020018280546001816001161561010002031660029004801561150b5780601f106114e05761010080835404028352916020019161150b565b820191906000526020600020905b8154815290600101906020018083116114ee57829003601f168201915b5050505050945060018981548110151561152157fe5b906000526020600020906008020160030154935060018981548110151561154457fe5b906000526020600020906008020160040154925060018981548110151561156757fe5b906000526020600020906008020160050160009054906101000a900460ff16915060018981548110151561159757fe5b906000526020600020906008020160060180548060200260200160405190810160405280929190818152602001828054801561162857602002820191906000526020600020905b8160009054906101000a900473ffffffffffffffffffffffffffffffffffffffff1673ffffffffffffffffffffffffffffffffffffffff16815260200190600101908083116115de575b50505050509050919395975091939597565b610100604051908101604052806060815260200160608152602001606081526020016000815260200160008152602001600060ff16815260200160608152602001600073ffffffffffffffffffffffffffffffffffffffff1681525090565b828054600181600116156101000203166002900490600052602060002090601f016020900481019282601f106116da57805160ff1916838001178555611708565b82800160010185558215611708579182015b828111156117075782518255916020019190600101906116ec565b5b5090506117159190611823565b5090565b828054828255906000526020600020908101928215611792579160200282015b828111156117915782518260006101000a81548173ffffffffffffffffffffffffffffffffffffffff021916908373ffffffffffffffffffffffffffffffffffffffff16021790555091602001919060010190611739565b5b50905061179f9190611848565b5090565b828054600181600116156101000203166002900490600052602060002090601f016020900481019282601f106117e457805160ff1916838001178555611812565b82800160010185558215611812579182015b828111156118115782518255916020019190600101906117f6565b5b50905061181f9190611823565b5090565b61184591905b80821115611841576000816000905550600101611829565b5090565b90565b61188891905b8082111561188457600081816101000a81549073ffffffffffffffffffffffffffffffffffffffff02191690555060010161184e565b5090565b905600a165627a7a72305820dd7514cbeb2b57305d2f677fe862f54d52468763a1f5022697595c6abe329b8a0029",
  "source": "pragma solidity ^0.4.23;\n\ncontract MealMenu {\n\n    mapping (address => uint) pendingWithdrawals;\n\n    struct Meal {\t\t\n    \tstring Title; // small Title (include limit in front-end?)\n\t\tstring Description; // allowed?\n\t\tstring Where; // small location (include limit in front-end?)\n\t\tuint When; //Unix Timestamp\n\t\tuint Price; //in wei, needs conversion to Ether (or currency) in front-end\n\t\tuint8 Capacity; //support <256\n\n\t\taddress[] Eaters;\n\t\taddress Cook;\n    }\n\n    Meal[] public availableMeals;\n\n    function getMeal(uint id) public view returns (\n    \taddress Cook,\n    \tstring Title, \n    \tstring Description, \n    \tstring Where, \n    \tuint When, \n    \tuint Price, \n    \tuint8 Capacity,\n    \taddress[] Eaters) {\n    \tCook = availableMeals[id].Cook;\n    \tTitle = availableMeals[id].Title;\n    \tDescription = availableMeals[id].Description;\n    \tWhere = availableMeals[id].Where;\n    \tWhen = availableMeals[id].When;\n    \tPrice = availableMeals[id].Price;\n    \tCapacity = availableMeals[id].Capacity;\n    \tEaters = availableMeals[id].Eaters;\n    }\n\n    function getNumberOfMeals() public view returns (uint) {\n    \treturn availableMeals.length;\n    }\n\n    function createMeal(string t, string d, string wr, uint wn, uint p, uint8 c) public {\n    \trequire(wn > now, \"Not allowed to create meals in the past\");\n    \trequire(c > 0, \"Zero-capacity meals are not allowed\");\n    \tMeal memory m;\n    \tm.Cook = msg.sender;\n    \tm.Title = t;\n    \tm.Description = d;\n    \tm.Where = wr;\n    \tm.When = wn;\n    \tm.Price = p;\n    \tm.Capacity = c;\n    \tavailableMeals.push(m);\n    }\n\n    function updateMeal(uint id, string t, string d, string wr, uint8 c) public {\n    \trequire(msg.sender == availableMeals[id].Cook, \"Only a the Cook of this meal can update the meal\");\n    \t// Do not allow lowering capacity below current reservation count\n    \trequire(uint8(availableMeals[id].Eaters.length) < c, \"You cannot lower the capacity below the number of current reservations\"); \n    \tavailableMeals[id].Title = t;\n    \tavailableMeals[id].Description = d;\n    \tavailableMeals[id].Where = wr;\n    \tavailableMeals[id].Capacity = c;\n    }\n\n    function reserve(uint id) payable public {\n    \trequire(availableMeals[id].When > now, \"Cannot reserve a meal in the past\");\n    \trequire(uint8(availableMeals[id].Eaters.length) < availableMeals[id].Capacity, \"The capacity of this meal has been reached\");\n    \tpendingWithdrawals[availableMeals[id].Cook] += msg.value;\n    \tavailableMeals[id].Eaters.push(msg.sender);\n    }\n\n    // https://solidity.readthedocs.io/en/v0.5.0/common-patterns.html#withdrawal-from-contracts\n    function withdraw() public {\n    \tuint amount = pendingWithdrawals[msg.sender];\n        pendingWithdrawals[msg.sender] = 0;\n        msg.sender.transfer(amount);\n    }\n}\n",
  "sourcePath": "/home/niels/SAN Seminar/SeminarSAN/Seminar SAN/smartcontracts/contracts/MealMenu.sol",
  "compiler": {
    "name": "solc",
    "version": "0.4.24+commit.e67f0147.Emscripten.clang"
  },
  "schemaVersion": "2.0.1",
  "updatedAt": "2018-12-02T12:52:53.505Z"
}