{
  "contractName": "MealMenu",
  "abi": [
    {
      "constant": true,
      "inputs": [
        {
          "name": "",
          "type": "uint256"
        }
      ],
      "name": "availableMeals",
      "outputs": [
        {
          "name": "Cook",
          "type": "address"
        },
        {
          "name": "Title",
          "type": "bytes32"
        },
        {
          "name": "Description",
          "type": "string"
        },
        {
          "name": "Where",
          "type": "bytes32"
        },
        {
          "name": "When",
          "type": "uint256"
        },
        {
          "name": "Price",
          "type": "uint256"
        },
        {
          "name": "Capacity",
          "type": "uint8"
        }
      ],
      "payable": false,
      "stateMutability": "view",
      "type": "function"
    },
    {
      "constant": true,
      "inputs": [
        {
          "name": "id",
          "type": "uint256"
        }
      ],
      "name": "getMeal",
      "outputs": [
        {
          "name": "Title",
          "type": "bytes32"
        },
        {
          "name": "Description",
          "type": "string"
        },
        {
          "name": "Where",
          "type": "bytes32"
        },
        {
          "name": "When",
          "type": "uint256"
        },
        {
          "name": "Price",
          "type": "uint256"
        },
        {
          "name": "Capacity",
          "type": "uint8"
        },
        {
          "name": "Reserved",
          "type": "uint8"
        }
      ],
      "payable": false,
      "stateMutability": "view",
      "type": "function"
    },
    {
      "constant": false,
      "inputs": [
        {
          "name": "t",
          "type": "bytes32"
        },
        {
          "name": "d",
          "type": "string"
        },
        {
          "name": "wr",
          "type": "bytes32"
        },
        {
          "name": "wn",
          "type": "uint256"
        },
        {
          "name": "p",
          "type": "uint256"
        },
        {
          "name": "c",
          "type": "uint8"
        }
      ],
      "name": "createMeal",
      "outputs": [],
      "payable": false,
      "stateMutability": "nonpayable",
      "type": "function"
    },
    {
      "constant": false,
      "inputs": [
        {
          "name": "id",
          "type": "uint256"
        },
        {
          "name": "t",
          "type": "bytes32"
        },
        {
          "name": "d",
          "type": "string"
        },
        {
          "name": "wr",
          "type": "bytes32"
        },
        {
          "name": "c",
          "type": "uint8"
        }
      ],
      "name": "updateMeal",
      "outputs": [],
      "payable": false,
      "stateMutability": "nonpayable",
      "type": "function"
    },
    {
      "constant": false,
      "inputs": [
        {
          "name": "id",
          "type": "uint256"
        }
      ],
      "name": "reserve",
      "outputs": [],
      "payable": true,
      "stateMutability": "payable",
      "type": "function"
    },
    {
      "constant": false,
      "inputs": [],
      "name": "withdraw",
      "outputs": [],
      "payable": false,
      "stateMutability": "nonpayable",
      "type": "function"
    }
  ],
  "bytecode": "0x608060405234801561001057600080fd5b50611055806100206000396000f300608060405260043610610078576000357c0100000000000000000000000000000000000000000000000000000000900463ffffffff1680630494278b1461007d5780633ccfd60b14610123578063819b25ba1461013a578063845e10961461015a5780638f1eeb41146101f6578063c2f0add714610308575b600080fd5b34801561008957600080fd5b506101216004803603810190808035600019169060200190929190803590602001908201803590602001908080601f016020809104026020016040519081016040528093929190818152602001838380828437820191505050505050919291929080356000191690602001909291908035906020019092919080359060200190929190803560ff1690602001909291905050506103f4565b005b34801561012f57600080fd5b5061013861059b565b005b6101586004803603810190808035906020019092919050505061066c565b005b34801561016657600080fd5b506101f4600480360381019080803590602001909291908035600019169060200190929190803590602001908201803590602001908080601f01602080910402602001604051908101604052809392919081815260200183838082843782019150505050505091929192908035600019169060200190929190803560ff169060200190929190505050610872565b005b34801561020257600080fd5b5061022160048036038101908080359060200190929190505050610b08565b604051808873ffffffffffffffffffffffffffffffffffffffff1673ffffffffffffffffffffffffffffffffffffffff16815260200187600019166000191681526020018060200186600019166000191681526020018581526020018481526020018360ff1660ff168152602001828103825287818151815260200191508051906020019080838360005b838110156102c75780820151818401526020810190506102ac565b50505050905090810190601f1680156102f45780820380516001836020036101000a031916815260200191505b509850505050505050505060405180910390f35b34801561031457600080fd5b5061033360048036038101908080359060200190929190505050610c1e565b6040518088600019166000191681526020018060200187600019166000191681526020018681526020018581526020018460ff1660ff1681526020018360ff1660ff168152602001828103825288818151815260200191508051906020019080838360005b838110156103b3578082015181840152602081019050610398565b50505050905090810190601f1680156103e05780820380516001836020036101000a031916815260200191505b509850505050505050505060405180910390f35b6103fc610dd2565b33816000019073ffffffffffffffffffffffffffffffffffffffff16908173ffffffffffffffffffffffffffffffffffffffff16815250508681602001906000191690816000191681525050858160400181905250848160600190600019169081600019168152505083816080018181525050828160a0018181525050818160c0019060ff16908160ff16815250506001819080600181540180825580915050906001820390600052602060002090600802016000909192909190915060008201518160000160006101000a81548173ffffffffffffffffffffffffffffffffffffffff021916908373ffffffffffffffffffffffffffffffffffffffff16021790555060208201518160010190600019169055604082015181600201908051906020019061052c929190610e37565b50606082015181600301906000191690556080820151816004015560a0820151816005015560c08201518160060160006101000a81548160ff021916908360ff16021790555060e082015181600701908051906020019061058e929190610eb7565b5050505050505050505050565b60008060003373ffffffffffffffffffffffffffffffffffffffff1673ffffffffffffffffffffffffffffffffffffffff16815260200190815260200160002054905060008060003373ffffffffffffffffffffffffffffffffffffffff1673ffffffffffffffffffffffffffffffffffffffff168152602001908152602001600020819055503373ffffffffffffffffffffffffffffffffffffffff166108fc829081150290604051600060405180830381858888f19350505050158015610668573d6000803e3d6000fd5b5050565b60018181548110151561067b57fe5b906000526020600020906008020160060160009054906101000a900460ff1660ff166001828154811015156106ac57fe5b90600052602060002090600802016007018054905060ff1610151561075f576040517f08c379a000000000000000000000000000000000000000000000000000000000815260040180806020018281038252602a8152602001807f546865206361706163697479206f662074686973206d65616c2068617320626581526020017f656e20726561636865640000000000000000000000000000000000000000000081525060400191505060405180910390fd5b3460008060018481548110151561077257fe5b906000526020600020906008020160000160009054906101000a900473ffffffffffffffffffffffffffffffffffffffff1673ffffffffffffffffffffffffffffffffffffffff1673ffffffffffffffffffffffffffffffffffffffff168152602001908152602001600020600082825401925050819055506001818154811015156107fa57fe5b90600052602060002090600802016007013390806001815401808255809150509060018203906000526020600020016000909192909190916101000a81548173ffffffffffffffffffffffffffffffffffffffff021916908373ffffffffffffffffffffffffffffffffffffffff1602179055505050565b60018581548110151561088157fe5b906000526020600020906008020160000160009054906101000a900473ffffffffffffffffffffffffffffffffffffffff1673ffffffffffffffffffffffffffffffffffffffff163373ffffffffffffffffffffffffffffffffffffffff1614151561097b576040517f08c379a00000000000000000000000000000000000000000000000000000000081526004018080602001828103825260308152602001807f4f6e6c7920612074686520436f6f6b206f662074686973206d65616c2063616e81526020017f2075706461746520746865206d65616c0000000000000000000000000000000081525060400191505060405180910390fd5b8060ff1660018681548110151561098e57fe5b90600052602060002090600802016007018054905060ff16101515610a41576040517f08c379a000000000000000000000000000000000000000000000000000000000815260040180806020018281038252603e8152602001807f596f752063616e6e6f74206c6f7765722074686520636170616369747920626581526020017f6c6f7720746865206e756d626572206f66207265736572766174696f6e73000081525060400191505060405180910390fd5b83600186815481101515610a5157fe5b9060005260206000209060080201600101816000191690555082600186815481101515610a7a57fe5b90600052602060002090600802016002019080519060200190610a9e929190610f41565b5081600186815481101515610aaf57fe5b9060005260206000209060080201600301816000191690555080600186815481101515610ad857fe5b906000526020600020906008020160060160006101000a81548160ff021916908360ff1602179055505050505050565b600181815481101515610b1757fe5b90600052602060002090600802016000915090508060000160009054906101000a900473ffffffffffffffffffffffffffffffffffffffff1690806001015490806002018054600181600116156101000203166002900480601f016020809104026020016040519081016040528092919081815260200182805460018160011615610100020316600290048015610bef5780601f10610bc457610100808354040283529160200191610bef565b820191906000526020600020905b815481529060010190602001808311610bd257829003601f168201915b5050505050908060030154908060040154908060050154908060060160009054906101000a900460ff16905087565b600060606000806000806000600188815481101515610c3957fe5b9060005260206000209060080201600101549650600188815481101515610c5c57fe5b90600052602060002090600802016002018054600181600116156101000203166002900480601f016020809104026020016040519081016040528092919081815260200182805460018160011615610100020316600290048015610d015780601f10610cd657610100808354040283529160200191610d01565b820191906000526020600020905b815481529060010190602001808311610ce457829003601f168201915b50505050509550600188815481101515610d1757fe5b9060005260206000209060080201600301549450600188815481101515610d3a57fe5b9060005260206000209060080201600401549350600188815481101515610d5d57fe5b9060005260206000209060080201600501549250600188815481101515610d8057fe5b906000526020600020906008020160060160009054906101000a900460ff169150600188815481101515610db057fe5b9060005260206000209060080201600701805490509050919395979092949650565b61010060405190810160405280600073ffffffffffffffffffffffffffffffffffffffff1681526020016000801916815260200160608152602001600080191681526020016000815260200160008152602001600060ff168152602001606081525090565b828054600181600116156101000203166002900490600052602060002090601f016020900481019282601f10610e7857805160ff1916838001178555610ea6565b82800160010185558215610ea6579182015b82811115610ea5578251825591602001919060010190610e8a565b5b509050610eb39190610fc1565b5090565b828054828255906000526020600020908101928215610f30579160200282015b82811115610f2f5782518260006101000a81548173ffffffffffffffffffffffffffffffffffffffff021916908373ffffffffffffffffffffffffffffffffffffffff16021790555091602001919060010190610ed7565b5b509050610f3d9190610fe6565b5090565b828054600181600116156101000203166002900490600052602060002090601f016020900481019282601f10610f8257805160ff1916838001178555610fb0565b82800160010185558215610fb0579182015b82811115610faf578251825591602001919060010190610f94565b5b509050610fbd9190610fc1565b5090565b610fe391905b80821115610fdf576000816000905550600101610fc7565b5090565b90565b61102691905b8082111561102257600081816101000a81549073ffffffffffffffffffffffffffffffffffffffff021916905550600101610fec565b5090565b905600a165627a7a72305820aae2a9891c5d9ec7e6edb57565253ef31d149522a01721b10009aac6f3a2e69a0029",
  "source": "pragma solidity ^0.4.23;\r\n\r\ncontract MealMenu {\r\n\r\n    mapping (address => uint) pendingWithdrawals;\r\n\r\n    struct Meal {\r\n\t\taddress Cook;\r\n    \tbytes32 Title; // small Title (include limit in front-end?)\r\n\t\tstring Description; // allowed?\r\n\t\tbytes32 Where; // small location (include limit in front-end?)\r\n\t\tuint When; //Unix Timestamp\r\n\t\tuint Price; //in wei, needs conversion to Ether (or currency) in front-end\r\n\t\tuint8 Capacity; //support <256\r\n\r\n\t\taddress[] Eaters;\r\n    }\r\n\r\n    Meal[] public availableMeals; // use generated getter(?) for getMeals in front-end\r\n\r\n    function getMeal(uint id) public view returns (\r\n    \tbytes32 Title, \r\n    \tstring Description, \r\n    \tbytes32 Where, \r\n    \tuint When, \r\n    \tuint Price, \r\n    \tuint8 Capacity,\r\n    \tuint8 Reserved) {\r\n    \tTitle = availableMeals[id].Title;\r\n    \tDescription = availableMeals[id].Description;\r\n    \tWhere = availableMeals[id].Where;\r\n    \tWhen = availableMeals[id].When;\r\n    \tPrice = availableMeals[id].Price;\r\n    \tCapacity = availableMeals[id].Capacity;\r\n    \tReserved = uint8(availableMeals[id].Eaters.length);\r\n    }\r\n\r\n    function createMeal(bytes32 t, string d, bytes32 wr, uint wn, uint p, uint8 c) public {\r\n    \tMeal memory m;\r\n    \tm.Cook = msg.sender;\r\n    \tm.Title = t;\r\n    \tm.Description = d;\r\n    \tm.Where = wr;\r\n    \tm.When = wn;\r\n    \tm.Price = p;\r\n    \tm.Capacity = c;\r\n    \tavailableMeals.push(m);\r\n    }\r\n\r\n    function updateMeal(uint id, bytes32 t, string d, bytes32 wr, uint8 c) public {\r\n    \trequire(msg.sender == availableMeals[id].Cook, \"Only a the Cook of this meal can update the meal\");\r\n    \t// Do not allow lowering capacity below current reservation count\r\n    \trequire(uint8(availableMeals[id].Eaters.length) < c, \"You cannot lower the capacity below the number of reservations\"); \r\n    \tavailableMeals[id].Title = t;\r\n    \tavailableMeals[id].Description = d;\r\n    \tavailableMeals[id].Where = wr;\r\n    \tavailableMeals[id].Capacity = c;\r\n    }\r\n\r\n    function reserve(uint id) payable public {\r\n    \trequire(uint8(availableMeals[id].Eaters.length) < availableMeals[id].Capacity, \"The capacity of this meal has been reached\");\r\n    \tpendingWithdrawals[availableMeals[id].Cook] += msg.value;\r\n    \tavailableMeals[id].Eaters.push(msg.sender);\r\n    }\r\n\r\n    // https://solidity.readthedocs.io/en/v0.5.0/common-patterns.html#withdrawal-from-contracts\r\n    function withdraw() public {\r\n    \tuint amount = pendingWithdrawals[msg.sender];\r\n        pendingWithdrawals[msg.sender] = 0;\r\n        msg.sender.transfer(amount);\r\n    }\r\n}\r\n",
  "sourcePath": "C:\\Users\\joep\\Documents\\School\\Master\\Seminar\\Project\\Seminar SAN\\smartcontracts\\contracts\\MealMenu.sol",
  "compiler": {
    "name": "solc",
    "version": "0.4.24+commit.e67f0147.Emscripten.clang"
  },
  "schemaVersion": "2.0.1",
  "updatedAt": "2018-11-28T19:34:35.183Z"
}