{
  "contractName": "MealMenu",
  "abi": [
    {
      "constant": true,
      "inputs": [
        {
          "name": "",
          "type": "uint256"
        }
      ],
      "name": "availableMeals",
      "outputs": [
        {
          "name": "Title",
          "type": "string"
        },
        {
          "name": "Description",
          "type": "string"
        },
        {
          "name": "Where",
          "type": "string"
        },
        {
          "name": "When",
          "type": "uint256"
        },
        {
          "name": "Price",
          "type": "uint256"
        },
        {
          "name": "Capacity",
          "type": "uint8"
        },
        {
          "name": "Cook",
          "type": "address"
        }
      ],
      "payable": false,
      "stateMutability": "view",
      "type": "function"
    },
    {
      "constant": true,
      "inputs": [
        {
          "name": "id",
          "type": "uint256"
        }
      ],
      "name": "getMeal",
      "outputs": [
        {
          "name": "Title",
          "type": "string"
        },
        {
          "name": "Description",
          "type": "string"
        },
        {
          "name": "Where",
          "type": "string"
        },
        {
          "name": "When",
          "type": "uint256"
        },
        {
          "name": "Price",
          "type": "uint256"
        },
        {
          "name": "Capacity",
          "type": "uint8"
        },
        {
          "name": "Reserved",
          "type": "uint8"
        }
      ],
      "payable": false,
      "stateMutability": "view",
      "type": "function"
    },
    {
      "constant": true,
      "inputs": [],
      "name": "getNumbeOfMeals",
      "outputs": [
        {
          "name": "",
          "type": "uint256"
        }
      ],
      "payable": false,
      "stateMutability": "view",
      "type": "function"
    },
    {
      "constant": false,
      "inputs": [
        {
          "name": "t",
          "type": "string"
        },
        {
          "name": "d",
          "type": "string"
        },
        {
          "name": "wr",
          "type": "string"
        },
        {
          "name": "wn",
          "type": "uint256"
        },
        {
          "name": "p",
          "type": "uint256"
        },
        {
          "name": "c",
          "type": "uint8"
        }
      ],
      "name": "createMeal",
      "outputs": [],
      "payable": false,
      "stateMutability": "nonpayable",
      "type": "function"
    },
    {
      "constant": false,
      "inputs": [
        {
          "name": "id",
          "type": "uint256"
        },
        {
          "name": "t",
          "type": "string"
        },
        {
          "name": "d",
          "type": "string"
        },
        {
          "name": "wr",
          "type": "string"
        },
        {
          "name": "c",
          "type": "uint8"
        }
      ],
      "name": "updateMeal",
      "outputs": [],
      "payable": false,
      "stateMutability": "nonpayable",
      "type": "function"
    },
    {
      "constant": false,
      "inputs": [
        {
          "name": "id",
          "type": "uint256"
        }
      ],
      "name": "reserve",
      "outputs": [],
      "payable": true,
      "stateMutability": "payable",
      "type": "function"
    },
    {
      "constant": false,
      "inputs": [],
      "name": "withdraw",
      "outputs": [],
      "payable": false,
      "stateMutability": "nonpayable",
      "type": "function"
    }
  ],
  "bytecode": "0x608060405234801561001057600080fd5b50611561806100206000396000f300608060405260043610610083576000357c0100000000000000000000000000000000000000000000000000000000900463ffffffff1680633ccfd60b146100885780634aa2335c1461009f5780636d377a76146101b5578063819b25ba146102c15780638964db84146102e15780638f1eeb411461030c578063c2f0add7146104d8575b600080fd5b34801561009457600080fd5b5061009d61067e565b005b3480156100ab57600080fd5b506101b3600480360381019080803590602001908201803590602001908080601f0160208091040260200160405190810160405280939291908181526020018383808284378201915050505050509192919290803590602001908201803590602001908080601f0160208091040260200160405190810160405280939291908181526020018383808284378201915050505050509192919290803590602001908201803590602001908080601f01602080910402602001604051908101604052809392919081815260200183838082843782019150505050505091929192908035906020019092919080359060200190929190803560ff16906020019092919050505061074f565b005b3480156101c157600080fd5b506102bf60048036038101908080359060200190929190803590602001908201803590602001908080601f0160208091040260200160405190810160405280939291908181526020018383808284378201915050505050509192919290803590602001908201803590602001908080601f0160208091040260200160405190810160405280939291908181526020018383808284378201915050505050509192919290803590602001908201803590602001908080601f0160208091040260200160405190810160405280939291908181526020018383808284378201915050505050509192919290803560ff1690602001909291905050506108fa565b005b6102df60048036038101908080359060200190929190505050610ba8565b005b3480156102ed57600080fd5b506102f6610dae565b6040518082815260200191505060405180910390f35b34801561031857600080fd5b5061033760048036038101908080359060200190929190505050610dbb565b604051808060200180602001806020018881526020018781526020018660ff1660ff1681526020018573ffffffffffffffffffffffffffffffffffffffff1673ffffffffffffffffffffffffffffffffffffffff16815260200184810384528b818151815260200191508051906020019080838360005b838110156103c95780820151818401526020810190506103ae565b50505050905090810190601f1680156103f65780820380516001836020036101000a031916815260200191505b5084810383528a818151815260200191508051906020019080838360005b8381101561042f578082015181840152602081019050610414565b50505050905090810190601f16801561045c5780820380516001836020036101000a031916815260200191505b50848103825289818151815260200191508051906020019080838360005b8381101561049557808201518184015260208101905061047a565b50505050905090810190601f1680156104c25780820380516001836020036101000a031916815260200191505b509a505050505050505050505060405180910390f35b3480156104e457600080fd5b5061050360048036038101908080359060200190929190505050611001565b604051808060200180602001806020018881526020018781526020018660ff1660ff1681526020018560ff1660ff16815260200184810384528b818151815260200191508051906020019080838360005b8381101561056f578082015181840152602081019050610554565b50505050905090810190601f16801561059c5780820380516001836020036101000a031916815260200191505b5084810383528a818151815260200191508051906020019080838360005b838110156105d55780820151818401526020810190506105ba565b50505050905090810190601f1680156106025780820380516001836020036101000a031916815260200191505b50848103825289818151815260200191508051906020019080838360005b8381101561063b578082015181840152602081019050610620565b50505050905090810190601f1680156106685780820380516001836020036101000a031916815260200191505b509a505050505050505050505060405180910390f35b60008060003373ffffffffffffffffffffffffffffffffffffffff1673ffffffffffffffffffffffffffffffffffffffff16815260200190815260200160002054905060008060003373ffffffffffffffffffffffffffffffffffffffff1673ffffffffffffffffffffffffffffffffffffffff168152602001908152602001600020819055503373ffffffffffffffffffffffffffffffffffffffff166108fc829081150290604051600060405180830381858888f1935050505015801561074b573d6000803e3d6000fd5b5050565b6107576112e4565b338160e0019073ffffffffffffffffffffffffffffffffffffffff16908173ffffffffffffffffffffffffffffffffffffffff16815250508681600001819052508581602001819052508481604001819052508381606001818152505082816080018181525050818160a0019060ff16908160ff168152505060018190806001815401808255809150509060018203906000526020600020906008020160009091929091909150600082015181600001908051906020019061081a929190611343565b506020820151816001019080519060200190610837929190611343565b506040820151816002019080519060200190610854929190611343565b50606082015181600301556080820151816004015560a08201518160050160006101000a81548160ff021916908360ff16021790555060c08201518160060190805190602001906108a69291906113c3565b5060e08201518160070160006101000a81548173ffffffffffffffffffffffffffffffffffffffff021916908373ffffffffffffffffffffffffffffffffffffffff16021790555050505050505050505050565b60018581548110151561090957fe5b906000526020600020906008020160070160009054906101000a900473ffffffffffffffffffffffffffffffffffffffff1673ffffffffffffffffffffffffffffffffffffffff163373ffffffffffffffffffffffffffffffffffffffff16141515610a03576040517f08c379a00000000000000000000000000000000000000000000000000000000081526004018080602001828103825260308152602001807f4f6e6c7920612074686520436f6f6b206f662074686973206d65616c2063616e81526020017f2075706461746520746865206d65616c0000000000000000000000000000000081525060400191505060405180910390fd5b8060ff16600186815481101515610a1657fe5b90600052602060002090600802016006018054905060ff16101515610ac9576040517f08c379a000000000000000000000000000000000000000000000000000000000815260040180806020018281038252603e8152602001807f596f752063616e6e6f74206c6f7765722074686520636170616369747920626581526020017f6c6f7720746865206e756d626572206f66207265736572766174696f6e73000081525060400191505060405180910390fd5b83600186815481101515610ad957fe5b90600052602060002090600802016000019080519060200190610afd92919061144d565b5082600186815481101515610b0e57fe5b90600052602060002090600802016001019080519060200190610b3292919061144d565b5081600186815481101515610b4357fe5b90600052602060002090600802016002019080519060200190610b6792919061144d565b5080600186815481101515610b7857fe5b906000526020600020906008020160050160006101000a81548160ff021916908360ff1602179055505050505050565b600181815481101515610bb757fe5b906000526020600020906008020160050160009054906101000a900460ff1660ff16600182815481101515610be857fe5b90600052602060002090600802016006018054905060ff16101515610c9b576040517f08c379a000000000000000000000000000000000000000000000000000000000815260040180806020018281038252602a8152602001807f546865206361706163697479206f662074686973206d65616c2068617320626581526020017f656e20726561636865640000000000000000000000000000000000000000000081525060400191505060405180910390fd5b34600080600184815481101515610cae57fe5b906000526020600020906008020160070160009054906101000a900473ffffffffffffffffffffffffffffffffffffffff1673ffffffffffffffffffffffffffffffffffffffff1673ffffffffffffffffffffffffffffffffffffffff16815260200190815260200160002060008282540192505081905550600181815481101515610d3657fe5b90600052602060002090600802016006013390806001815401808255809150509060018203906000526020600020016000909192909190916101000a81548173ffffffffffffffffffffffffffffffffffffffff021916908373ffffffffffffffffffffffffffffffffffffffff1602179055505050565b6000600180549050905090565b600181815481101515610dca57fe5b9060005260206000209060080201600091509050806000018054600181600116156101000203166002900480601f016020809104026020016040519081016040528092919081815260200182805460018160011615610100020316600290048015610e765780601f10610e4b57610100808354040283529160200191610e76565b820191906000526020600020905b815481529060010190602001808311610e5957829003601f168201915b505050505090806001018054600181600116156101000203166002900480601f016020809104026020016040519081016040528092919081815260200182805460018160011615610100020316600290048015610f145780601f10610ee957610100808354040283529160200191610f14565b820191906000526020600020905b815481529060010190602001808311610ef757829003601f168201915b505050505090806002018054600181600116156101000203166002900480601f016020809104026020016040519081016040528092919081815260200182805460018160011615610100020316600290048015610fb25780601f10610f8757610100808354040283529160200191610fb2565b820191906000526020600020905b815481529060010190602001808311610f9557829003601f168201915b5050505050908060030154908060040154908060050160009054906101000a900460ff16908060070160009054906101000a900473ffffffffffffffffffffffffffffffffffffffff16905087565b606080606060008060008060018881548110151561101b57fe5b90600052602060002090600802016000018054600181600116156101000203166002900480601f0160208091040260200160405190810160405280929190818152602001828054600181600116156101000203166002900480156110c05780601f10611095576101008083540402835291602001916110c0565b820191906000526020600020905b8154815290600101906020018083116110a357829003601f168201915b505050505096506001888154811015156110d657fe5b90600052602060002090600802016001018054600181600116156101000203166002900480601f01602080910402602001604051908101604052809291908181526020018280546001816001161561010002031660029004801561117b5780601f106111505761010080835404028352916020019161117b565b820191906000526020600020905b81548152906001019060200180831161115e57829003601f168201915b5050505050955060018881548110151561119157fe5b90600052602060002090600802016002018054600181600116156101000203166002900480601f0160208091040260200160405190810160405280929190818152602001828054600181600116156101000203166002900480156112365780601f1061120b57610100808354040283529160200191611236565b820191906000526020600020905b81548152906001019060200180831161121957829003601f168201915b5050505050945060018881548110151561124c57fe5b906000526020600020906008020160030154935060018881548110151561126f57fe5b906000526020600020906008020160040154925060018881548110151561129257fe5b906000526020600020906008020160050160009054906101000a900460ff1691506001888154811015156112c257fe5b9060005260206000209060080201600601805490509050919395979092949650565b610100604051908101604052806060815260200160608152602001606081526020016000815260200160008152602001600060ff16815260200160608152602001600073ffffffffffffffffffffffffffffffffffffffff1681525090565b828054600181600116156101000203166002900490600052602060002090601f016020900481019282601f1061138457805160ff19168380011785556113b2565b828001600101855582156113b2579182015b828111156113b1578251825591602001919060010190611396565b5b5090506113bf91906114cd565b5090565b82805482825590600052602060002090810192821561143c579160200282015b8281111561143b5782518260006101000a81548173ffffffffffffffffffffffffffffffffffffffff021916908373ffffffffffffffffffffffffffffffffffffffff160217905550916020019190600101906113e3565b5b50905061144991906114f2565b5090565b828054600181600116156101000203166002900490600052602060002090601f016020900481019282601f1061148e57805160ff19168380011785556114bc565b828001600101855582156114bc579182015b828111156114bb5782518255916020019190600101906114a0565b5b5090506114c991906114cd565b5090565b6114ef91905b808211156114eb5760008160009055506001016114d3565b5090565b90565b61153291905b8082111561152e57600081816101000a81549073ffffffffffffffffffffffffffffffffffffffff0219169055506001016114f8565b5090565b905600a165627a7a7230582075c10f3714aea54773fc58d2fc1bf1501f0f97d3b058b264a9bbbff3c5476da30029",
  "source": "pragma solidity ^0.4.23;\n\ncontract MealMenu {\n\n    mapping (address => uint) pendingWithdrawals;\n\n    struct Meal {\t\t\n    \tstring Title; // small Title (include limit in front-end?)\n\t\tstring Description; // allowed?\n\t\tstring Where; // small location (include limit in front-end?)\n\t\tuint When; //Unix Timestamp\n\t\tuint Price; //in wei, needs conversion to Ether (or currency) in front-end\n\t\tuint8 Capacity; //support <256\n\n\t\taddress[] Eaters;\n\t\taddress Cook;\n    }\n\n    Meal[] public availableMeals;\n\n    function getMeal(uint id) public view returns (\n    \tstring Title, \n    \tstring Description, \n    \tstring Where, \n    \tuint When, \n    \tuint Price, \n    \tuint8 Capacity,\n    \tuint8 Reserved) {\n    \tTitle = availableMeals[id].Title;\n    \tDescription = availableMeals[id].Description;\n    \tWhere = availableMeals[id].Where;\n    \tWhen = availableMeals[id].When;\n    \tPrice = availableMeals[id].Price;\n    \tCapacity = availableMeals[id].Capacity;\n    \tReserved = uint8(availableMeals[id].Eaters.length);\n    }\n\n    function getNumbeOfMeals() public view returns (uint) {\n    \treturn availableMeals.length;\n    }\n\n    function createMeal(string t, string d, string wr, uint wn, uint p, uint8 c) public {\n    \tMeal memory m;\n    \tm.Cook = msg.sender;\n    \tm.Title = t;\n    \tm.Description = d;\n    \tm.Where = wr;\n    \tm.When = wn;\n    \tm.Price = p;\n    \tm.Capacity = c;\n    \tavailableMeals.push(m);\n    }\n\n    function updateMeal(uint id, string t, string d, string wr, uint8 c) public {\n    \trequire(msg.sender == availableMeals[id].Cook, \"Only a the Cook of this meal can update the meal\");\n    \t// Do not allow lowering capacity below current reservation count\n    \trequire(uint8(availableMeals[id].Eaters.length) < c, \"You cannot lower the capacity below the number of reservations\"); \n    \tavailableMeals[id].Title = t;\n    \tavailableMeals[id].Description = d;\n    \tavailableMeals[id].Where = wr;\n    \tavailableMeals[id].Capacity = c;\n    }\n\n    function reserve(uint id) payable public {\n    \trequire(uint8(availableMeals[id].Eaters.length) < availableMeals[id].Capacity, \"The capacity of this meal has been reached\");\n    \tpendingWithdrawals[availableMeals[id].Cook] += msg.value;\n    \tavailableMeals[id].Eaters.push(msg.sender);\n    }\n\n    // https://solidity.readthedocs.io/en/v0.5.0/common-patterns.html#withdrawal-from-contracts\n    function withdraw() public {\n    \tuint amount = pendingWithdrawals[msg.sender];\n        pendingWithdrawals[msg.sender] = 0;\n        msg.sender.transfer(amount);\n    }\n}\n",
  "sourcePath": "/home/niels/SAN Seminar/SeminarSAN/Seminar SAN/smartcontracts/contracts/MealMenu.sol",
  "compiler": {
    "name": "solc",
    "version": "0.4.24+commit.e67f0147.Emscripten.clang"
  },
  "schemaVersion": "2.0.1",
  "updatedAt": "2018-12-01T21:56:19.639Z"
}